:02000000F22EDE
:08000600FA1FF213003008009C
:0E000E00F201F101F001F801F30100300800E9
:10001C00FB14FB1F1828FF30F300F200F100F00076
:08002C00FA0DF20CFF30080090
:100034007B15FB1F24280130F300F201F101F001CC
:08004400FA0DF20CFF30080078
:0C004C00000000000000000000000800A0
:10005800243083120313FC00B530FD00FD0B322859
:0A006800FC0B322800000000080025
:0E007200533083120313FD00FD0B3D280800E0
:100080007C187628FC1847287C1995284028A00160
:100090007208031D67287108F2007008F1007808E3
:1000A000F000F801A0157208031D67287108F2001E
:1000B0007008F100F001A01120167208031D6728D6
:1000C0007108F200F101A0157208031989282008AF
:1000D000F302031D031C8D280310F21B7628F80D74
:1000E000F00DF10DF20DF30B6D288D287B1B701CAC
:1000F0009128F81F9128F00A0319F10A0319F20A4E
:10010000031D9128F20CF10CF00CF30A0319952849
:1001100091280130FC00072098280230FC001A20AA
:1001200098280430FC00032098280830FC000E209A
:0401300000000800C3
:10013400A0017208031DAF287108F2007008F100D5
:10014400F001A0157208031DAF287108F200F10137
:10015400A011201672080319BD282008F302031DFC
:10016400031CC1280310F21BC528F00DF10DF20D7C
:10017400F30BB528C1280130FC000720C828023041
:0E018400FC001A20C8280430FC0003200800EC
:1001920083120313FB017308031D77080319202937
:1001A20072087606FA007708F3077E30031CDD2812
:1001B200F30203182329E028F302031C26297208FC
:1001C200F8007108FC007008FD00F817F61703101C
:1001D200F201F101F0011830A0007D1CFA28740828
:1001E200F00775080318750FF10776080318760FE4
:1001F200F207F20CF10CF00CF80CFC0CFD0C0310E5
:10020200A00BEE28F21B0A29F80DF00DF10DF20DEC
:10021200F3037B1B701C1C29F81F1C29F00A03190D
:10022200F10A0319F20A031D1C29F20CF10CF00C5D
:10023200F30A03192329FA1FF21300302829013087
:100242000720282902300E20282904301A20000015
:020252000800A2
:1002540083120313F801F9011030FC00710DF80D3D
:10026400F90D7408F8027508031C750FF9020318D8
:1002740042297408F80775080318750FF907031065
:0A028400F00DF10DFC0B302908000D
:10028E0083120313D71B4D2986134E298617571B2E
:10029E005229061353290617D71A57298612582999
:1002AE008616571A5C2906125D2906162118612931
:1002BE00061562290611861526208611D719692979
:1002CE0086136A29861757196E2906136F29061782
:1002DE00D71873298612742986165718782906128C
:1002EE007929061621187D2906157E2906118615EF
:1002FE0026208611211C85292C20862939200800CC
:10030E008312031372087606A000F801F901730830
:10031E007702031CAA297708FD007308F7007D08F1
:10032E00F3007608FD007208F6007D08F2007508ED
:10033E00FD007108F5007D08F1007408FD007008DD
:10034E00F4007D08F00077080319232A7208FA00DA
:10035E00F217F61777087302F7000319DD29083034
:10036E007702031CD329F7007408F9007508F4000E
:10037E007608F500F60108307702031CD329F70042
:10038E007408F9007508F400F50108307702031CB3
:10039E00D3297A08F200232A77080319DD290310DE
:1003AE00F60CF50CF40CF90CF70BD629A01FEA2964
:1003BE00F909F409F509F609F90A0319F40A0319FA
:1003CE00F50A0319F60A7908F80774080318740F6A
:1003DE00F00775080318750FF10776080318760FE6
:1003EE00F207A01B032A031C132AF20CF10CF00CCB
:1003FE00F80CF30F132A1F2A0318172AF809F0090D
:10040E00F109F209F80A0319F00A0319F10A03199E
:10041E00F20A8030FA061B2A0130FC004020252A01
:10042E000230FC004020252A0430FC009A20252AA8
:10043E000830FC000E20252A0030FC0000000800C9
:0E044E008312031323088A002208820008008C
:10045C00710DF80DF90D7408F8027508031C750F71
:10046C00F902F00DF10D0F30FC00710DF80DF90DC6
:10047C007408701C472AF8027508031C750FF902E2
:10048C004C2AF80775080318750FF907F00DF10DD4
:10049C00FC0B3B2A7018582A7408F80775080318C7
:0804AC00750FF90700000800BC
:0C04B400831203138030F6068721080035
:1004C000831203137008F8007108F000F101F201C3
:1004D000F301FB01FC019630F300FA01F01F762ACC
:1004E000F809F009F80A0319F00AFA177008F10080
:0C04F0007808F000F801F2019A200800E2
:1004FC00243083120313FD00FD0B822A0000080038
:10050C007B14FB1F912AF201FA1FFF30F200F1005D
:0A051C00F000FA0DF20CFF300800A9
:100526004B3083120313F4000330740784007E30CB
:100536000002F000F101031CF1034F08840070086B
:1005460080007108840A80000330740784007E30BE
:1005560080004B08F0004C08F1004D08F2004E08F0
:04056600F300080096
:10056A0083120313CE0105304E020318C32A4E0824
:10057A004D07840020308000CE0AB82A4E084D0765
:10058A0084008001CE034E084D07CF000A30F400E4
:10059A00F5014B08F0004C08F1002A217808F00018
:1005AA007908F1003030F0074F08840070088000A5
:1005BA000A30F400F5014B08F0004C08F1002A213A
:1005CA007008CB007108CC0000307106031DEF2AB9
:1005DA0000307006031DF22AF42ACE03C82A080046
:0605EA00FB15FF300800C4
:1005F0008312031321104B08D70047212114080050
:1006000083120313FA017308031D7A147708031D7C
:10061000FA147A0803194C2B033A0319172B7A188A
:10062000142BF61F4A2B482BF21F482B4A2B72081B
:100630008039FA00F21376088039F6137A06031926
:10064000252B7A080319482B4A2B770873020319C4
:100650002C2B031C402B442B760872020319332BDE
:10066000031C402B442B7508710203193A2B031C01
:10067000402B442B7408700203194C2B0318442B95
:10068000FA0803194A2B482BFA080319482B4A2B5E
:1006900003140800031008000314031508000800E1
:1006A000831203135108F0005208F100F00DF10D10
:1006B0007010F00DF10D70104F08F007500803187E
:1006C000013EF1077008A2007108A30027228A11D9
:1006D0000A12D300A20A0319A30A27228A110A12B6
:1006E000D400A20A0319A30A27228A110A12D500EC
:1006F000A20A0319A30A27228A110A12D600510856
:1007000052040319CF2B4B08F0004C08F1004D08A0
:10071000F2004E08F3005308F4005408F5005508A1
:10072000F6005608F700C9200130D102031CD2039D
:100730005108F4005208F500F40DF50D7410F40D95
:10074000F50D74104F08F40750080318013EF50723
:100750007408A2007508A30027228A110A12F40067
:10076000A20A0319A30A27228A110A12F500A20A73
:100770000319A30A27228A110A12F600A20A0319F2
:10078000A30A27228A110A12F70087217008D300D2
:100790007108D4007208D5007308D6007F2B530867
:1007A000F0005408F1005508F2005608F300080064
:1007B00083120313C701C8014208C9004308CA00D5
:1007C00080304306F00080307002031DE92B0030BA
:1007D00042020318F72B0130C7000030C80042085E
:1007E000003CC9004308031C013ECA01CA02490873
:1007F000CB004A08CC004408CD00B5220630C50025
:100800000030C6004608003C031D082C4508003C8B
:100810000318232C45084407F20001304502F0007C
:100820000030031C013E4602F100700844078400BA
:100830000008F00072088400700880000130C502D2
:10084000031CC603022C44088400203080004708A3
:1008500048040319412CC501C6014508440784001A
:100860000008203A031D382CC50A0319C60A2D2C8E
:100870000130C502031CC6034508440784002D301F
:0408800080000800EC
:10088400831203137408003A031D5D2C7508003AA3
:10089400031D5D2C7608003A031D5D2C7708003A91
:1008A400031D5D2CFF30F000FF30F1007F30F200BB
:1008B400FF30F300F82C8312031377080319EC2C90
:1008C40073080319EF2C720876068039FA00F217C0
:1008D400F617A0017208F8007108FC007008FD000A
:1008E4007408FD027508031C750FFC027608031CCE
:1008F400760FF802F801FC01FD01031C882C03109B
:10090400F20CF10CF00CF80C0130A0007708F302A3
:10091400031C922C7E302007F3070318F22C972C2B
:100924007E302007F307031CF52C1830FA07FD0D61
:10093400FC0DF80DF00DF10DF20DA00D7408F00290
:100944007508031C750FF1027608031C760FF2027A
:10095400760DA004201CB02C7D14BB2C7408F00769
:1009640075080318750FF10776080318760AF2075D
:100974007D10FA031F307A05031D992C7B1B7D1C07
:10098400E22C0310F00DF10DF20DA00D7408F0022D
:100994007508031C750FF1027608031C760FF2022A
:1009A400760D20040139FD070318FC0A0319F80A1F
:1009B400031DE22CF80CFC0CFD0CF30A0319F22CB9
:1009C400FA1FF8137808F2007C08F1007D08F000A3
:1009D4000030F72C0130F522F72C02300720F72CD9
:0E09E40004300E20F72C08301A200000080006
:1009F2000B2D803083120313C2001E2DC030C200A3
:100A02001E2D9430C2001E2DD430C2001E2D803007
:100A1200C2001E2D831203134208013A0319FA2C55
:100A22004208023A0319FF2C4208033A0319022D25
:100A32004208043A0319052D082D4303F000420829
:100A4200F0077008C2007008D70047212110C501C5
:100A520045084407840000080319372D4508440758
:100A620084000008CB00F822C50A292D21140800B1
:100A7200831203134208F4004308F5004408F60009
:100A82004508F700F001F101F201F3010023013002
:100A9200031C0030F00070080319542DF001F1011D
:100AA200F201F301AD2D4208CB004308CC0044080B
:100AB200CD004508CE004630CF0093220030F4002E
:100AC2000030F5000030F6008030F700C920003019
:100AD200F4000030F5000030F6007F30F7005A22B3
:100AE2007008C2007108C3007208C4007308C50010
:100AF2000130C602031CC7037008CB007108CC008A
:100B02007208CD007308CE00B930CF000730D00094
:100B12000830D1000030D20050237008C2007108A2
:100B2200C3007208C4007308C5004608F0004708F5
:100B3200F10060221830F4007230F5003130F60016
:100B42007E30F700C9204208F4004308F50044084B
:0A0B5200F6004508F70087210800AF
:100B5C0083120313FB0173080319EB2D7208FA00BF
:100B6C00F2178E30F302F31FEE2DF309F30A08305F
:100B7C007302031CD12DF300F10D7208F100F20188
:100B8C0008307302031CD12DF300F10DF101730831
:100B9C00031D0310D92D73080319D92D0310F20C62
:100BAC00F10CF30BD42D7B1B711CE32D031CE32DDB
:100BBC00F10A0319F20AF21BFA2DFA1FFD2DF209A4
:100BCC00F109F10A0319F20AFD2DF201F101FD2DD3
:100BDC007B14FB1F002EF201FA1F002EFF30F200D7
:100BEC00F100FA0DF20C002E0130FC00022E003048
:100BFC00FC00022EFF30FC00FC080319062E862296
:0A0C0C007108F0007208F100080002
:100C1600831203139F01C0309F0483161F179F176B
:100C260083124208F000F00D7010F00D7010F00DF8
:100C3600701070089F041F147E221F151F1D252E7D
:100C46000000212E1F101E08F100F00183161E0859
:080C5600F0040030F104080075
:100C5E00831203137408003A031D3E2E7508003AE2
:100C6E00031D3E2EFF30F0007F30F100972E8312D1
:100C7E000313FD01F901F801710870040319003422
:100C8E0071087506FA00FA1BFD09FB01F51F542EBB
:100C9E00F409F509F40A0319F50AF11F5B2EF009A0
:100CAE00F109F00A0319F10A71087504FA00FA1B2A
:100CBE00702E2E227B18832EFD1F0034F009F109B1
:100CCE00F00A0319F10AF809F909F80A0319F90AE1
:100CDE000034F51F7F2EF11B7B2E7108F900700872
:100CEE00F800F101F001632EF101F001F00A003479
:100CFE00F109F009FB0A602EF80A0319F90A7408C3
:100D0E007802031D632E75087902031D632EF90107
:100D1E00F801F00A0319F10AF11F632E0000FF34E7
:020D2E000800BB
:100D300083160313861106110612861206138613F4
:100D400083128611061186130613861206122C20B2
:100D50002C202C20861606168615262086112C207F
:100D60008615262086112C208615262086112C20FB
:100D700006128615262086112C208615262086111F
:100D8000861286178615262086112C2086130616B5
:100D900086152620861106128615262086112C20FF
:100DA00086152620861106168615262086112C20EB
:100DB0000612861526208611861706178616061631
:0C0DC0008615262086112C202114080026
:100DCC0027228A110A128000840AA20A0319A30A94
:080DDC00F003031DE62E0800E0
:100DE400CB3083120313B2004830B3000430B40094
:100DF4007530B500D630B6006430B7007930B8002D
:100E04007230B9006C30BA00CF30BB005830BC002F
:100E14006830BD00982683169F018312C2010B26F9
:100E24007008F4007108F500FF30F0000330F100A1
:100E34002F260130F002031CF10360220030F4007D
:100E44004030F5001C30F6008C30F700C9207008E3
:100E5400C2007108C3007208C4007308C5003925B4
:100E64007008AE007108AF007208B0007308B100DA
:100E74003608F4003708F5003808F6003908F7009A
:100E8400C9203208F4003308F5003408F6003508A8
:100E9400F70087217008BE007108BF007208C00007
:100EA4007308C1003A08F0003B08F1003C08F20066
:100EB4003D08F3002E08F4002F08F5003008F60072
:100EC4003108F700C9202E08F4002F08F500300877
:100ED400F6003108F700C9202E08F4002F08F500A9
:100EE4003008F6003108F700C9203E08F4003F0836
:100EF400F5004008F6004108F70087217008F40067
:100F04007108F5007208F6007308F7000030F0006D
:100F14000030F1000030F2007F30F300422433301F
:100F2400F4009330F5000830F6008730F7005A22B9
:100F3400AE257008C2007108C3002430C400D82351
:100F44000230C2000130C3002430C400F92406304A
:100F5400FB001330FC00AD30FD00FD0BAF2FFC0B8C
:0E0F6400AF2FFB0BAF2F000000000F2FB82F98
:100F7200FF34E6345B345D34C434FF347F347E3472
:100F82008034EF34FF347D349034E13429347D34BD
:100F9200EC348234F6347C348234AD342B347C34F9
:100FA2000E343C34C3347B348734D13413347A3432
:080FB20041347834D334773464
:02400E004A2F37
:00000001FF
